:100000000C9434000C9451000C9451000C94510049
:100010000C9451000C9451000C9451000C9451001C
:100020000C9451000C9451000C9451000C9451000C
:100030000C9451000C9451000C9451000C945100FC
:100040000C9451000C9451000C9451000C945100EC
:100050000C9451000C9451000C9451000C945100DC
:100060000C9451000C94510011241FBECFEFD8E026
:10007000DEBFCDBF11E0A0E0B1E0EEEFF0E002C0E6
:1000800005900D92AA30B107D9F711E0AAE0B1E0CE
:1000900001C01D92AA30B107E1F70E9479000C94CB
:1000A0007D000C9400002A988EBD0DB407FEFDCF94
:1000B0002A9A8FE392E4AFE081509040A040E1F7AC
:1000C00000C00000089584B18C6284B985B1837D3D
:1000D00085B980E58CBD0895C0E0D0E0FE01E05018
:1000E000FF4F80810E9453002196CA30D105B4F39E
:0E00F000F3CF0E9463000E946C00F894FFCFD3
:0A00FE007B6037766C5E5F707F7EDA
:00000001FF
