:100000000C9434000C9451000C9451000C94510049
:100010000C9451000C9451000C9451000C9451001C
:100020000C9451000C9451000C9451000C9451000C
:100030000C9451000C9451000C9451000C945100FC
:100040000C9451000C9451000C9451000C945100EC
:100050000C9451000C9451000C9451000C945100DC
:100060000C9451000C94510011241FBECFEFD8E026
:10007000DEBFCDBF11E0A0E0B1E0EAE1F1E002C0F7
:1000800005900D92AA31B107D9F711E0AAE1B1E0CC
:1000900001C01D92AA31B107E1F70E9487000C94BC
:1000A0008B000C9400001092C50085E08093C40082
:1000B00088E18093C10086E08093C200089580911A
:1000C000C00087FFFCCF8091C60008959091C000CA
:1000D00095FFFCCF8093C6000895CF93DF93EC018A
:1000E00002C00E94660089918823D9F7DF91CF91E1
:1000F000089580E091E00E946D008FE392E4AFE00C
:1001000081509040A040E1F700C00000F2CF0E9473
:0A01100053000E947900F894FFCF1D
:10011A004142434445464748494A4B4C4D4E4F504D
:0A012A00525354555758595A00001B
:00000001FF
