:100000000C9434000C9451000C9451000C94510049
:100010000C9451000C9451000C9451000C9451001C
:100020000C9451000C9451000C9451000C9451000C
:100030000C9451000C9451000C9451000C945100FC
:100040000C9451000C9451000C9451000C945100EC
:100050000C9451000C9451000C9451000C945100DC
:100060000C9451000C94510011241FBECFEFD8E026
:10007000DEBFCDBF11E0A0E0B1E0E8EFF0E002C0EC
:1000800005900D92AC30B107D9F711E0ACE0B1E0CA
:1000900001C01D92AC30B107E1F70E9475000C94CD
:1000A0007A000C94000007C0E9EFF0E03197F1F717
:1000B00000C0000001970097B9F708958A309105B4
:1000C0002CF480509F4FFC0180818BB90895C0E0D3
:1000D000D0E0CE010E945E00C930D105C4F7219660
:1000E00088EB9BE00E945300F4CF8FEF8AB98BB965
:0800F0000E946700F894FFCFA5
:0C00F8007B6037766C5E5F707F7E0900D5
:00000001FF
